:020000040000FA
:0400000069EF07F0AD
:08000800056ED8CF06F0E0CF31
:1000100007F00001E9CF0DF0EACF08F0E1CF09F0D9
:10002000E2CF0AF0D9CF0BF0DACF0CF0F3CF14F017
:10003000F4CF15F0FACF16F000C00FF001C010F0A9
:1000400002C011F003C012F004C013F0A0AA2CEFFC
:1000500000F0A1BAFEEF05F00FC000F010C001F0F3
:1000600011C002F012C003F013C004F00DC0E9FF8C
:1000700008C0EAFF088E09C0E1FF0AC0E2FF0BC01A
:10008000D9FF0CC0DAFF14C0F3FF15C0F4FF16C08F
:10009000FAFF055007C0E0FF06C0D8FF1000F76A5E
:1000A000AE0FF66E000EF7220900F55012000403A1
:1000B000000000000000000000000000000008AE8A
:1000C00003D0F2CF0EF0F29EF76AE00FF66E000E4C
:1000D000F7220900F55008AE02D00EBEF28E1200D3
:1000E00040000800000000000000000000000000C8
:1000F0000000000000000000000000000000000000
:10010000F76A100FF66E010EF7220900F550120083
:100110000600FF0901A101190129081580257F7535
:10012000089502810219012908750895029102C0FB
:10013000F76A400FF66E010EF7220900F550120023
:100140000000F76A520FF66E010EF7220900F55013
:1001500012002000F76A640FF66E010EF722090004
:10016000F550120009022900010100C03209040003
:100170000002030000000921000100012220000705
:100180000581030800FA0705010308000A00F76A61
:100190009E0FF66E010EF7220900F55012000100C5
:1001A000F76AB00FF66E010EF7220900F550120043
:1001B0001201100100000040610420000001010252
:1001C0000001F76AD20FF66E010EF7220900F55012
:1001D00012000403090408034300430053001A03F8
:1001E0004300430053002000480049004400200021
:1001F000440065006D006F006D926994689409EF8A
:1002000006F06A6A689212EF06F04B6A4B520AE1F6
:10021000036A4B50270FE96E000E0320EA6EEF6A67
:100220004B2AF4D71A6A010E1B6E196A000C010ED4
:10023000546E54500F080EE3700E5424016E0F0ECE
:10024000036ED8B0032A01C0E9FF03C0EAFFEF6ADA
:10025000542AEFD71E6A1D6A000C400E0401016F7C
:10026000050E036F026B880E006F046B050E076F9F
:10027000400E066F0001000C6A6A686A9F0E6B6E82
:10028000390E696E6E6AC1DFD2DF160E706E68A617
:1002900002D06896FCD76D98E0DF030E1F6E18EF52
:1002A00006F0698468986D821EEF06F0689C24EF62
:1002B00006F070A002D0D1DF7090689A2AEF06F0A5
:1002C0004FC020F0000CFF0E206E000C4D6A26522D
:1002D0003EE04D503F083BE31C50FC0F2BE2040F67
:1002E000B1EF01F0036A2550F2CF4FF0F29E32DFFA
:1002F0004FBEF28E4E6E1ED0036A2550F2CF4FF0E5
:10030000F29EFEDE4FBEF28E4E6E14D0036A255072
:10031000F2CF4FF0F29E55DF4FBEF28E4E6E0AD0F6
:10032000036A2550F2CF4FF0F29E3ADF4FBEF28EB5
:100330004E6E00D0252A26064D504D2A036A400FE6
:10034000E96E050E0320EA6E4EC0EFFFC0D72652BD
:1003500004E14D50400801E0196A4DC04FF0B0DF94
:10036000000CE824F76AF7367D0FF66E030EF722CD
:100370000A00F550FA6E0800F550F96EE402F80232
:100380000C032003256A1C6A05010351010A0001C0
:1003900009E0030A0CE0010A0DE0220A22E0030A48
:1003A00032E058D0120E266E030E1C6E55D0290E68
:1003B000266E52D0020E1C6E036A05010251210FF7
:1003C000E96E000E0320EA6EEFCF25F0036A255098
:1003D000F2CF4DF0F29E0001F4DE4DBEF28E266E9D
:1003E0003BD0120E256E253C01D00BD0036A255060
:1003F000F2CF4DF0F29EAEDE4DBEF28E266E2CD0C8
:1004000002D061DF35D0D89005010435036AF2CF00
:100410004DF0F29E00018CDE0900F5CF03F04DBED9
:10042000F28E256E253C01D013D0010E1C6ED890A3
:1004300005010435036AF2CF4DF0F29E000181DE22
:100440000900F5CF03F04DBEF28E266E05D002D026
:100450003ADF0ED038DF0CD00501075305E12650F6
:10046000065D02E206C526F0010E196E00012EDFC0
:10047000000C4C5204E1040E1F6ED9DEC1D0050EF3
:100480001F6E4F6E800E4E6E010E4D6E4D500F085A
:10049000D8A0B6D0506A036A4D50F2CF54F0F29E05
:1004A000FEDD54BEF28E000A51E0040E506ED8906C
:1004B0004D34036AF2CF54F0F29E01DE0900F5CF0D
:1004C00003F054BEF28E516E03C052F04D50080D31
:1004D000F350010F016E040E036ED8B0032A01C061
:1004E000E9FF03C0EAFF51C0EFFF4D50080DF35084
:1004F000020F016E040E036ED8B0032A01C0E9FF9B
:1005000003C0EAFF4FC0ECFFED524EC0EFFFD890A2
:100510004D34036AF2CF54F0F29ED1DD0900F5CFDD
:1005200003F054BEF28E4E2603504F22880E536EB7
:1005300052B0538052B253824D50080DF3CF01F0A8
:10054000040E01C0E9FFEA6E53C0EFFF036A4D508D
:10055000F2CF54F0F29EA3DD54BEF28E000A31E0D9
:1005600050824D50080DF350060F016E040E036EBD
:10057000D8B0032A01C0E9FF03C0EAFF4FC0ECFF77
:10058000ED524EC0EFFFD8904D34036AF2CF54F0D5
:10059000F29E95DD0900F5CF03F054BEF28E4E2693
:1005A00003504F224D50080DF350040F016E040EFE
:1005B000036ED8B0032A01C0E9FF03C0EAFF400E72
:1005C000EF6E5050060802E10E0E506E036A4D5059
:1005D000F2CF54F0F29E63DD54BEF28E020801E0C9
:1005E0005088700E4D24016E0F0E036ED8B0032A92
:1005F00001C0E9FF03C0EAFF50C0EFFF4D2A46D714
:100600004CEF03F00501015100010DE0010A14E077
:10061000020A1EE0060A27E0030A2CE00E0A2CE07C
:10062000010A30E03DD01BC040F50501416B020ED0
:100630004F6E000145DE36D00501022D06D0010EB9
:100640001B164F6A00013CDE02D000013CDE2AD0BE
:100650000501022D05D01B824F6A000131DE02D058
:10066000000131DE1FD0020E196E02C524F04F6A60
:1006700027DE18D087DE16D01AC040F5010E4F6E67
:100680001FDE10D005010251010808E302C51AF06F
:1006900002C54CF00001EDD64F6A12DE000102D017
:1006A00012DE00D082EF04F01AC04CF005010151B7
:1006B000000107E00A0A0DE0010A2DE00D0A3DE005
:1006C0003ED00501406B416B020E4F6E0001F8DD1C
:1006D00038D04C521EE0010E4C5C036AF2CF4EF053
:1006E000F29E55DD4EBEF28E016E0501045DD8A06E
:1006F00002D000010ED0036A0451270FE96E000EEC
:100700000320EA6EEFCF40F5010E4F6E0001D8DDF9
:1007100001D0D9DD16D04C520EE0036A0501045118
:10072000270FE96E000E0320EA6E02C5EFFF4F6A45
:100730000001C6DD01D0C7DD04D024DE02D0C3DD58
:1007400000D082EF04F04D904CBE4D804C9E4DA0E9
:1007500010D0036A4C50F2CF4EF0F29EA0DC4EBE99
:10076000F28E000A02E1000E01D0010E016E10D0DF
:100770000FD0036A4C50F2CF4EF0F29E90DC4EBE8A
:10078000F28E000A02E1000E01D0010E016E00D0CF
:100790003AEF04F04D904CBE4D804C9E4DA010D0D1
:1007A0004C50080DF350040F016E040E036ED8B0C8
:1007B000032A01C0E9FF03C0EAFF880EEF6E09D0EB
:1007C0004C50080DF3CF01F0040E01C0E9FFEA6EB2
:1007D000EF6A49EF04F04D904CBE4D804C9E4DA009
:1007E00010D04C50080DF350040F016E040E036E30
:1007F000D8B0032A01C0E9FF03C0EAFF840EEF6E00
:100800000AD04C50080DF3CF01F0040E01C0E9FFEF
:10081000EA6E840EEF6E4FEF04F04D904CBE4D80AB
:100820004C9E4DA010D04C50080DF350040F016E9B
:10083000040E036ED8B0032A01C0E9FF03C0EAFF2B
:10084000EFCF4EF00AD04C50080DF3CF01F0040E5C
:1008500001C0E9FFEA6EEFCF4EF04EAE02D04EB4CB
:1008600002D0000E01D0010E016E59EF04F004C554
:100870004CF069D7015229E005010151010A00013C
:1008800005E0020A09E0030A0DE01DD004C54CF0A2
:1008900081D74F6A15DD19D004C54CF09CD74F6A3B
:1008A0000FDD13D00501406B416B04C54CF0000116
:1008B000B4D7015204E0010E0501406F0001020EA1
:1008C0004F6EFEDC02D0FFDC00D082EF04F00501A9
:1008D000015100D00001F7DC00D082EF04F0196A6A
:1008E000050100517F0B000107E0010A06E0030A41
:1008F00005E0230A04E004D085D6D6D6B8D7E7D7DA
:10090000E2DC00D0A9EF05F04C50080DF3CF01F068
:10091000040E01C0E9FFEA6EEFCF4EF04D50020821
:1009200006E14EAC02D04D6A02D0010E4D6E4D5024
:10093000030812E1840E4E6E4C50080DF350040F64
:10094000016E040E036ED8B0032A01C0E9FF03C094
:10095000EAFF840EEF6E09D04D2C03D0C80E4E6E08
:1009600004D04D5202E1880E4E6E036A010E026EF3
:100970004C50006E05E0D89002360336002EFBD7AF
:100980000250FF0A006EFF0E031A00501D1603509E
:100990001E16D8904C34036AF2CF51F0F29E5FECF1
:1009A00000F00900F5CF03F051BEF28E4F6E03C088
:1009B00050F04C50080DF350010F016E040E036E01
:1009C000D8B0032A01C0E9FF03C0EAFF4FC0EFFF20
:1009D00050B04E8050B24E824C50080DF3CF01F013
:1009E000040E01C0E9FFEA6E4EC0EFFF000C4C5050
:1009F000080DF350040F016E040E036ED8B0032AE5
:100A000001C0E9FF03C0EAFFEFCF50F050BE5BD05A
:100A10004C50080DF350050F016E040E036ED8B054
:100A2000032A01C0E9FF03C0EAFF4DC0EFFF4F50AA
:100A3000020816E14C50080DF350040F016E040E2D
:100A4000036ED8B0032A01C0E9FF03C0EAFFEFCF6D
:100A500050F050AC02D04F6A02D0010E4F6E13D04E
:100A60004F50040810E14C50080DF3CF01F0040E74
:100A700001C0E9FFEA6EEFCF50F050AC03D0010E99
:100A80004F6E01D04F6A4F2C03D0C80E506E04D069
:100A90004F5202E1880E506E4EB050804EB25082DE
:100AA0004C50080DF350040F016E040E036ED8B0C5
:100AB000032A01C0E9FF03C0EAFF50C0EFFF010EA7
:100AC000016E03D000D0000E016E000C4C5203E109
:100AD0002DEC01F00FD0036A010E026E4C50006E37
:100AE00005E0D89002360336002EFBD702501D12C7
:100AF00003501E12000C4DC06EFF4D5203E0040E59
:100B00001F6E02D0020E1F6E8BEF05F01A6A196A73
:100B100024C04DF0F0D798EF05F04C5209E1192CA4
:100B200003D066EC01F004D01950020801E1EED7C1
:100B3000000C6C304B6E4B324B321F0E4B166C520E
:100B40003BE1040100513C0B34081BE1046B000144
:100B5000C6D6203C05D04C6A030E4D6ED5DE0ED0B5
:100B60004C6A020E4D6ED0DE2050FE0807E04C6A43
:100B70004E6A20C04DF0040E4F6E39DF6D9819D0CB
:100B8000040100513C0B040815E14C6A00019EDF92
:100B90004C6A020E4D6EB8DE2050FE080AE0203C82
:100BA00001D007D04C6A4E6A20C04DF0010E4F6E46
:100BB0001EDF040120D000016C50040812E1FF0E7A
:100BC000206E4C6AAADF203C01D008D04C6A4E6AE5
:100BD00020C04DF0020E4F6E0ADF02D02DEC01F066
:100BE00009D06CB404D04BC04CF070DF03D04BC0C4
:100BF0004CF093DF040100012FEF06F01F5201E1DA
:100C00002FD068522DE068A404D069A402D0FCEF74
:100C100000F06DA201D024D068A204D069A202D055
:100C200001EF01F068A004D069A002D03CEF01F010
:100C300068A804D069A802D051EF01F068AC04D0D4
:100C400069AC02D056EF01F068AA04D069AA02D0BC
:100C500059EF01F068A604D069A602D06AD7689659
:100C6000A19A2CEF00F06D6A696A080E6F6E9450BD
:100C70003009946E1F6A186AF2BE188EF29E05EC57
:100C800001F018BEF28E1E6A1D6A6AEF06F0186A3D
:100C9000F2BE188EF29E05EC01F018BEF28E6D6A5F
:100CA000140E6F6E696A6D86010E1F6E5BEF06F0A3
:100CB0006DB601D0ECD71F2C0BD06DBA09D0686A85
:100CC000696AA08AC00EF212110E696E020E1F6EC2
:100CD000000CC9D7EDDF1F500208FCE1AEEF07F0B2
:100CE0001A5202E10400FCD7B0EF07F0EA6A390EAD
:100CF000E96EEF500EE00F0E016E006A002EFED777
:100D0000012EFBD78F0E006E002EFED70000EF2EB7
:100D1000F2D7C7EF07F03950080DF350040F016EFA
:100D2000040E036ED8B0032A01C0E9FF03C0EAFF36
:100D3000EFCF41F041BE45D03950080DF350060FBA
:100D4000016E040E036ED8B0032A01C0E9FF03C090
:100D5000EAFFECCF03F0ED52EFCF42F003C043F0D7
:100D6000406A3F6A40503D5C1AE303E13C503F5CFF
:100D700016E23AC0E9FF3BC0EAFFEFCF46F043C0BE
:100D8000EAFF42C0E9FF46C0EFFF422AD8B4432A37
:100D90003A2AD8B43B2A3F2AD8B4402AE3D7186A63
:100DA000F2BE188EF29E39C04CF03DC04EF03CC0F1
:100DB0004DF03EC04FF01BDE18BEF28E015003D046
:100DC00000D0000E016EE6EF07F03E50080DF35024
:100DD000020F016E040E036ED8B0032A01C0E9FFB2
:100DE00003C0EAFFECCF03F0ED52EFCF43F003C0B6
:100DF00044F03E50080DF350010F016E040E036ED7
:100E0000D8B0032A01C0E9FF03C0EAFFEF50036A2C
:100E1000466E03C047F03E50080DF3CF01F0040EBC
:100E200001C0E9FFEA6EEFCF45F045B0478045B21B
:100E300047824750425C08E303E14150465C04E2CC
:100E400047C042F046C041F0476A466A4750425C9C
:100E50001AE303E14150465C16E243C0E9FF44C097
:100E6000EAFFEFCF4AF040C0EAFF3FC0E9FF4AC0C7
:100E7000EFFF3F2AD8B4402A432AD8B4442A462A4E
:100E8000D8B4472AE3D741C001F042C002F054EF82
:100E900007F039C03EF03BC040F03AC03FF03DC0E3
:100EA00042F03CC041F091D702C03DF001C03CF09F
:100EB000186AF2BE188EF29E39C04CF0020E4D6ECA
:100EC00023DD18BEF28E3CC001F03DC002F0F1EF10
:100ED00007F0F86AD09E088EEA6AE96AC150C00B32
:100EE0000F09C16E070EB46E1F6A216A040E226ECE
:100EF0000C0E236E266A386AFF0E926E000E936EF9
:100F0000946E7F0E956E968096829684C150C00B2B
:100F10000909C16EC080C082C084C09EC280000E1C
:100F2000016EC250C30B0110C26EB00ED56ED76AEF
:100F3000D66A000E0409CA6E7F0ECB6E94948B9411
:100F40000C0EBD6EB76AB66A94928B92BA6EBE6A88
:100F5000BB6A94908B90959E8C8EBBD6A9DEC0D632
:100F6000959E8C9E94908B80A3DE1A5241E0386A45
:100F7000385005081AE33834006E0036FC0E0016AF
:100F8000C250C30B0010C26E050E396EAFD6036A95
:100F90003850280FE96E000E0320EA6EC282C2B2FA
:100FA000FED7C4CFEFFF382AE3D7D6502E6EFF0E00
:100FB000956E83CF2FF0010E396E3B6A280E3A6E84
:100FC0003D6A080E3C6E020E3E6EA5D61DA210D0E4
:100FD000010E396E3B6A300E3A6E3D6A030E3C6E6E
:100FE00058D730C0BEFF31C0BBFF936A32C08AFF02
:040FF000BBD7030068
:020000040030CA
:0E000000240E3E1E008381000FC00FE00F4053
:00000001FF
;PIC18F4550
;CRC=5D31  CREATED="19-dic.-15 18:43"
