:020000040000FA
:0400000054EF07F0C2
:08000800056ED8CF06F0E0CF31
:1000100007F00001E9CF0DF0EACF08F0E1CF09F0D9
:10002000E2CF0AF0D9CF0BF0DACF0CF0F3CF14F017
:10003000F4CF15F0FACF16F000C00FF001C010F0A9
:1000400002C011F003C012F004C013F0A0AA2CEFFC
:1000500000F0A1BAFEEF05F00FC000F010C001F0F3
:1000600011C002F012C003F013C004F00E8E0DC0D8
:10007000E9FF08C0EAFF09C0E1FF0AC0E2FF0BC0C8
:10008000D9FF0CC0DAFF14C0F3FF15C0F4FF16C08F
:10009000FAFF055007C0E0FF06C0D8FF1000F76A5E
:1000A000AE0FF66E000EF7220900F55012000403A1
:1000B00000000000000000000000000000000DAE85
:1000C00003D0F2CF0EF0F29EF76AE00FF66E000E4C
:1000D000F7220900F5500DAE02D00EBEF28E1200CE
:1000E00040000800000000000000000000000000C8
:1000F0000000000000000000000000000000000000
:10010000F76A100FF66E010EF7220900F550120083
:100110000600FF0901A101190129081580257F7535
:10012000089502810219012908750895029102C0FB
:10013000F76A400FF66E010EF7220900F550120023
:100140000000F76A520FF66E010EF7220900F55013
:1001500012002000F76A640FF66E010EF722090004
:10016000F550120009022900010100C03209040003
:100170000002030000000921000100012220000705
:100180000581030800FA0705010308000A00F76A61
:100190009E0FF66E010EF7220900F55012000100C5
:1001A000F76AB00FF66E010EF7220900F550120043
:1001B0001201100100000040610420000001010252
:1001C0000001F76AD20FF66E010EF7220900F55012
:1001D00012000403090408034300430053001A03F8
:1001E0004300430053002000480049004400200021
:1001F000440065006D006F006D926994689409EF8A
:1002000006F06A6A689212EF06F04A6A4A520AE1F8
:10021000036A4A50270FE96E000E0320EA6EEF6A68
:100220004A2AF4D71A6A010E1B6E196A000C010ED5
:10023000536E53500F080EE3700E5324016E0F0ED1
:10024000036ED8B0032A01C0E9FF03C0EAFFEF6ADA
:10025000532AEFD71E6A1D6A000C400E0401016F7D
:10026000050E036F026B880E006F046B050E076F9F
:10027000400E066F0001000C6A6A686A9F0E6B6E82
:10028000390E696E6E6AC1DFD2DF160E706E68A617
:1002900002D06896FCD76D98E0DF030E1F6E18EF52
:1002A00006F0698468986D821EEF06F0689C24EF62
:1002B00006F070A002D0D1DF7090689A2AEF06F0A5
:1002C0004EC020F0000CFF0E206E000C4C6A26522F
:1002D0003EE04C503F083BE31C50FC0F2BE2040F68
:1002E000B1EF01F0036A2550F2CF4EF0F29E32DFFB
:1002F0004EBEF28E4D6E1ED0036A2550F2CF4EF0E8
:10030000F29EFEDE4EBEF28E4D6E14D0036A255074
:10031000F2CF4EF0F29E55DF4EBEF28E4D6E0AD0F9
:10032000036A2550F2CF4EF0F29E3ADF4EBEF28EB7
:100330004D6E00D0252A26064C504C2A036A400FE9
:10034000E96E050E0320EA6E4DC0EFFFC0D72652BE
:1003500004E14C50400801E0196A4CC04EF0B0DF97
:10036000000CE824F76AF7367D0FF66E030EF722CD
:100370000A00F550FA6E0800F550F96EE402F80232
:100380000C032003256A1C6A05010351010A0001C0
:1003900009E0030A0CE0010A0DE0220A22E0030A48
:1003A00032E058D0120E266E030E1C6E55D0290E68
:1003B000266E52D0020E1C6E036A05010251210FF7
:1003C000E96E000E0320EA6EEFCF25F0036A255098
:1003D000F2CF4CF0F29E0001F4DE4CBEF28E266E9F
:1003E0003BD0120E256E253C01D00BD0036A255060
:1003F000F2CF4CF0F29EAEDE4CBEF28E266E2CD0CA
:1004000002D061DF35D0D89005010435036AF2CF00
:100410004CF0F29E00018CDE0900F5CF03F04CBEDB
:10042000F28E256E253C01D013D0010E1C6ED890A3
:1004300005010435036AF2CF4CF0F29E000181DE23
:100440000900F5CF03F04CBEF28E266E05D002D027
:100450003ADF0ED038DF0CD00501075305E12650F6
:10046000065D02E206C526F0010E196E00012EDFC0
:10047000000C4B5204E1040E1F6ED9DEC1D0050EF4
:100480001F6E4E6E800E4D6E010E4C6E4C500F085E
:10049000D8A0B6D04F6A036A4C50F2CF53F0F29E08
:1004A000FEDD53BEF28E000A51E0040E4F6ED8906E
:1004B0004C34036AF2CF53F0F29E01DE0900F5CF0F
:1004C00003F053BEF28E506E03C051F04C50080D35
:1004D000F350010F016E040E036ED8B0032A01C061
:1004E000E9FF03C0EAFF50C0EFFF4C50080DF35086
:1004F000020F016E040E036ED8B0032A01C0E9FF9B
:1005000003C0EAFF4EC0ECFFED524DC0EFFFD890A4
:100510004C34036AF2CF53F0F29ED1DD0900F5CFDF
:1005200003F053BEF28E4D2603504E22880E526EBB
:1005300051B0528051B252824C50080DF3CF01F0AD
:10054000040E01C0E9FFEA6E52C0EFFF036A4C508F
:10055000F2CF53F0F29EA3DD53BEF28E000A31E0DB
:100560004F824C50080DF350060F016E040E036EBF
:10057000D8B0032A01C0E9FF03C0EAFF4EC0ECFF78
:10058000ED524DC0EFFFD8904C34036AF2CF53F0D8
:10059000F29E95DD0900F5CF03F053BEF28E4D2695
:1005A00003504E224C50080DF350040F016E040E00
:1005B000036ED8B0032A01C0E9FF03C0EAFF400E72
:1005C000EF6E4F50060802E10E0E4F6E036A4C505C
:1005D000F2CF53F0F29E63DD53BEF28E020801E0CB
:1005E0004F88700E4C24016E0F0E036ED8B0032A94
:1005F00001C0E9FF03C0EAFF4FC0EFFF4C2A46D716
:100600004CEF03F00501015100010DE0010A14E077
:10061000020A1EE0060A27E0030A2CE00E0A2CE07C
:10062000010A30E03DD01BC040F50501416B020ED0
:100630004E6E000145DE36D00501022D06D0010EBA
:100640001B164E6A00013CDE02D000013CDE2AD0BF
:100650000501022D05D01B824E6A000131DE02D059
:10066000000131DE1FD0020E196E02C524F04E6A61
:1006700027DE18D087DE16D01AC040F5010E4E6E68
:100680001FDE10D005010251010808E302C51AF06F
:1006900002C54BF00001EDD64E6A12DE000102D019
:1006A00012DE00D082EF04F01AC04BF005010151B8
:1006B000000107E00A0A0DE0010A2DE00D0A3DE005
:1006C0003ED00501406B416B020E4E6E0001F8DD1D
:1006D00038D04B521EE0010E4B5C036AF2CF4DF056
:1006E000F29E55DD4DBEF28E016E0501045DD8A06F
:1006F00002D000010ED0036A0451270FE96E000EEC
:100700000320EA6EEFCF40F5010E4E6E0001D8DDFA
:1007100001D0D9DD16D04B520EE0036A0501045119
:10072000270FE96E000E0320EA6E02C5EFFF4E6A46
:100730000001C6DD01D0C7DD04D024DE02D0C3DD58
:1007400000D082EF04F04C904BBE4C804B9E4CA0EE
:1007500010D0036A4B50F2CF4DF0F29EA0DC4DBE9C
:10076000F28E000A02E1000E01D0010E016E10D0DF
:100770000FD0036A4B50F2CF4DF0F29E90DC4DBE8D
:10078000F28E000A02E1000E01D0010E016E00D0CF
:100790003AEF04F04C904BBE4C804B9E4CA010D0D6
:1007A0004B50080DF350040F016E040E036ED8B0C9
:1007B000032A01C0E9FF03C0EAFF880EEF6E09D0EB
:1007C0004B50080DF3CF01F0040E01C0E9FFEA6EB3
:1007D000EF6A49EF04F04C904BBE4C804B9E4CA00E
:1007E00010D04B50080DF350040F016E040E036E31
:1007F000D8B0032A01C0E9FF03C0EAFF840EEF6E00
:100800000AD04B50080DF3CF01F0040E01C0E9FFF0
:10081000EA6E840EEF6E4FEF04F04C904BBE4C80AE
:100820004B9E4CA010D04B50080DF350040F016E9E
:10083000040E036ED8B0032A01C0E9FF03C0EAFF2B
:10084000EFCF4DF00AD04B50080DF3CF01F0040E5E
:1008500001C0E9FFEA6EEFCF4DF04DAE02D04DB4CE
:1008600002D0000E01D0010E016E59EF04F004C554
:100870004BF069D7015229E005010151010A00013D
:1008800005E0020A09E0030A0DE01DD004C54BF0A3
:1008900081D74E6A15DD19D004C54BF09CD74E6A3E
:1008A0000FDD13D00501406B416B04C54BF0000117
:1008B000B4D7015204E0010E0501406F0001020EA1
:1008C0004E6EFEDC02D0FFDC00D082EF04F00501AA
:1008D000015100D00001F7DC00D082EF04F0196A6A
:1008E000050100517F0B000107E0010A06E0030A41
:1008F00005E0230A04E004D085D6D6D6B8D7E7D7DA
:10090000E2DC00D0A9EF05F04B50080DF3CF01F069
:10091000040E01C0E9FFEA6EEFCF4DF04C50020823
:1009200006E14DAC02D04C6A02D0010E4C6E4C5028
:10093000030812E1840E4D6E4B50080DF350040F66
:10094000016E040E036ED8B0032A01C0E9FF03C094
:10095000EAFF840EEF6E09D04C2C03D0C80E4D6E0A
:1009600004D04C5202E1880E4D6E036A010E026EF5
:100970004B50006E05E0D89002360336002EFBD7B0
:100980000250FF0A006EFF0E031A00501D1603509E
:100990001E16D8904B34036AF2CF50F0F29E5FECF3
:1009A00000F00900F5CF03F050BEF28E4E6E03C08A
:1009B0004FF04B50080DF350010F016E040E036E03
:1009C000D8B0032A01C0E9FF03C0EAFF4EC0EFFF21
:1009D0004FB04D804FB24D824B50080DF3CF01F018
:1009E000040E01C0E9FFEA6E4DC0EFFF000C4B5052
:1009F000080DF350040F016E040E036ED8B0032AE5
:100A000001C0E9FF03C0EAFFEFCF4FF04FBE5BD05C
:100A10004B50080DF350050F016E040E036ED8B055
:100A2000032A01C0E9FF03C0EAFF4CC0EFFF4E50AC
:100A3000020816E14B50080DF350040F016E040E2E
:100A4000036ED8B0032A01C0E9FF03C0EAFFEFCF6D
:100A50004FF04FAC02D04E6A02D0010E4E6E13D052
:100A60004E50040810E14B50080DF3CF01F0040E76
:100A700001C0E9FFEA6EEFCF4FF04FAC03D0010E9B
:100A80004E6E01D04E6A4E2C03D0C80E4F6E04D06D
:100A90004E5202E1880E4F6E4DB04F804DB24F82E4
:100AA0004B50080DF350040F016E040E036ED8B0C6
:100AB000032A01C0E9FF03C0EAFF4FC0EFFF010EA8
:100AC000016E03D000D0000E016E000C4B5203E10A
:100AD0002DEC01F00FD0036A010E026E4B50006E38
:100AE00005E0D89002360336002EFBD702501D12C7
:100AF00003501E12000C4CC06EFF4C5203E0040E5B
:100B00001F6E02D0020E1F6E8BEF05F01A6A196A73
:100B100024C04CF0F0D798EF05F04B5209E1192CA6
:100B200003D066EC01F004D01950020801E1EED7C1
:100B3000000C6C304A6E4A324A321F0E4A166C5212
:100B40003BE1040100513C0B34081BE1046B000144
:100B5000C6D6203C05D04B6A030E4C6ED5DE0ED0B7
:100B60004B6A020E4C6ED0DE2050FE0807E04B6A46
:100B70004D6A20C04CF0040E4E6E39DF6D9819D0CE
:100B8000040100513C0B040815E14B6A00019EDF93
:100B90004B6A020E4C6EB8DE2050FE080AE0203C84
:100BA00001D007D04B6A4D6A20C04CF0010E4E6E4A
:100BB0001EDF040120D000016C50040812E1FF0E7A
:100BC000206E4B6AAADF203C01D008D04B6A4D6AE8
:100BD00020C04CF0020E4E6E0ADF02D02DEC01F068
:100BE00009D06CB404D04AC04BF070DF03D04AC0C7
:100BF0004BF093DF040100012FEF06F01F5201E1DB
:100C00002FD068522DE068A404D069A402D0FCEF74
:100C100000F06DA201D024D068A204D069A202D055
:100C200001EF01F068A004D069A002D03CEF01F010
:100C300068A804D069A802D051EF01F068AC04D0D4
:100C400069AC02D056EF01F068AA04D069AA02D0BC
:100C500059EF01F068A604D069A602D06AD7689659
:100C6000A19A2CEF00F06D6A696A080E6F6E9450BD
:100C70003009946E1F6A186AF2BE188EF29E05EC57
:100C800001F018BEF28E1E6A1D6A6AEF06F0186A3D
:100C9000F2BE188EF29E05EC01F018BEF28E6D6A5F
:100CA000140E6F6E696A6D86010E1F6E5BEF06F0A3
:100CB0006DB601D0ECD71F2C0BD06DBA09D0686A85
:100CC000696AA08AC00EF212110E696E020E1F6EC2
:100CD000000CC9D7EDDF1F500208FCE17EEF07F0E2
:100CE0001A5202E10400FCD780EF07F03850080DDB
:100CF000F350040F016E040E036ED8B0032A01C036
:100D0000E9FF03C0EAFFEFCF40F040BE45D03850C6
:100D1000080DF350060F016E040E036ED8B0032ABF
:100D200001C0E9FF03C0EAFFECCF03F0ED52EFCFC3
:100D300041F003C042F03F6A3E6A3F503C5C1AE318
:100D400003E13B503E5C16E239C0E9FF3AC0EAFFDE
:100D5000EFCF45F042C0EAFF41C0E9FF45C0EFFFD9
:100D6000412AD8B4422A392AD8B43A2A3E2AD8B4D9
:100D70003F2AE3D7186AF2BE188EF29E38C04BF0B5
:100D80003CC04DF03BC04CF03DC04EF030DE18BED4
:100D9000F28E015003D000D0000E016E97EF07F0E5
:100DA0003D50080DF350020F016E040E036ED8B0D3
:100DB000032A01C0E9FF03C0EAFFECCF03F0ED52C4
:100DC000EFCF42F003C043F03D50080DF350010F48
:100DD000016E040E036ED8B0032A01C0E9FF03C000
:100DE000EAFFEF50036A456E03C046F03D50080D20
:100DF000F3CF01F0040E01C0E9FFEA6EEFCF44F03B
:100E000044B0468044B246824650415C08E303E168
:100E10004050455C04E246C041F045C040F0466A9F
:100E2000456A4650415C1AE303E14050455C16E2D6
:100E300042C0E9FF43C0EAFFEFCF49F03FC0EAFFFD
:100E40003EC0E9FF49C0EFFF3E2AD8B43F2A422AFC
:100E5000D8B4432A452AD8B4462AE3D740C001F083
:100E600041C002F03FEF07F038C03DF03AC03FF01C
:100E700039C03EF03CC041F03BC040F091D702C0C9
:100E80003CF001C03BF0186AF2BE188EF29E38C0EA
:100E90004BF0020E4C6E38DD18BEF28E3BC001F0F6
:100EA0003CC002F0A2EF07F0F86AD09E0D8EEA6A0D
:100EB000E96AC150C00B0F09C16E070EB46E1F6AFC
:100EC000216A040E226E0C0E236E266AC150C00BDE
:100ED0000E09C16EC080C082C084C09EC280000E58
:100EE000016EC250C30B0110C26E000E936E936A66
:100EF0008A6A94908B9094928B82EBD6D9DEF0D64E
:100F000094928B9294908B80D3DE1A5222E0C2820C
:100F1000C2B2FED7C4CF28F0010E386E3A6A280E4E
:100F2000396E3C6A010E3B6E020E3D6EDFD61DA28D
:100F300010D0010E386E3A6A300E396E3C6A010EDE
:100F40003B6E92D7302C03D093908A9002D093902E
:060F50008A80DAD70300DD
:020000040030CA
:0E000000240E3E1E008381000FC00FE00F4053
:00000001FF
;PIC18F4550
